:020000040800F2
:1000000088140020E1010008B123000877210008CE
:10001000052300085D030008E12800080000000037
:10002000000000000000000000000000490100087E
:100030008F030008000000008D010008E92300087C
:10004000FB010008FB010008FB010008FB010008A0
:10005000FB010008FB010008FB010008FB01000890
:10006000FB010008FB010008FB010008FB01000880
:10007000FB010008FB010008FB010008FB01000870
:10008000FB010008FB010008FB010008FB01000860
:10009000FB010008FB010008FB010008FB01000850
:1000A000FB01000899240008FB010008FB0100087F
:1000B000FB010008FB010008FB010008FB01000830
:1000C000FB010008FB010008FB010008FB01000820
:1000D000FB010008D1280008FB010008FB01000813
:1000E000FB010008FB010008FB010008FB01000800
:1000F000FB010008FB010008FB010008FB010008F0
:10010000FB010008FB010008FB010008FB010008DF
:10011000FB010008FB010008FB010008FB010008CF
:10012000FB010008FB010008FB010008FB010008BF
:10013000DFF810D000F08AF800480047892900084D
:10014000AFF3008088140020224B19680868B0E8DB
:10015000F00F80F30988BFF36F8F4FF0000080F33A
:1001600011884EF00D0E7047000000000648006830
:10017000006880F3088862B661B6BFF34F8FBFF3A3
:100180006F8F00DF00BF00BF08ED00E0EFF30980D4
:10019000BFF36F8F0F4B1A6820E9F00F106008B59E
:1001A0004FF0500080F31188BFF34F8FBFF36F8F74
:1001B00003F0A8F84FF0000080F31188BDE8084074
:1001C00019680868B0E8F00F80F30988BFF36F8FF3
:1001D000704700BF20000020EFF30580704700004B
:1001E0000648804706480047FEE7FEE7FEE7FEE7D1
:1001F000FEE7FEE7FEE7FEE7FEE7FEE797240008DE
:100200003101000840EA01039B0703D009E008C957
:10021000121F08C0042AFAD203E011F8013B00F8CB
:10022000013B521EF9D27047D2B201E000F8012B17
:10023000491EFBD270470022F6E710B513460A4666
:1002400004461946FFF7F0FF204610BD064C074D47
:1002500006E0E06840F0010394E807009847103496
:10026000AC42F6D3FFF768FFFC3C00081C3D0008D9
:1002700070B5044600252068806800F0010018B3BE
:100280002068806820F001002168886000F01EFE70
:10029000054613E000F01AFE401B02280ED9206824
:1002A000806800F0010048B1A06A40F01000A06230
:1002B000E06A40F00100E062012070BD20688068C3
:1002C00000F001000028E5D10020F6E738B504462B
:1002D0000025002000902068806800F0010078BBB5
:1002E0002068806840F00100216888601948006833
:1002F0001949B0FBF1F0009002E00098401E009018
:1003000000980028F9D100F0E1FD054619E000F061
:10031000DDFD401B022814D92068806800F0010030
:1003200078B9A06A40F01000A062E06A40F00100D5
:10033000E06200BF002084F8240000BF012038BD27
:1003400005E02068806800F001000028DFD0002070
:10035000F5E700001C00002040420F0000BFFEE750
:1003600030B50246AA2008705520487000200123AD
:100370000AE012F810505C1C0D5532F81040250AA6
:100380009C1C0D55401C9B1C0A28F2DB30BD70479D
:1003900072B600BFFEE7000038B502460023002019
:1003A000009000BF92F82400012801D1022038BD3E
:1003B000012082F8240000BF4868072812D2106884
:1003C000406B0C79641E04EB84051F24AC40A043F1
:1003D0000D796D1E05EB85050C68AC402043146853
:1003E000606327E048680D2812D21068006B0C7912
:1003F000E41F04EB84051F24AC40A0430D79ED1FDE
:1004000005EB85050C68AC4020431468206311E0BF
:100410001068C06A0C790D3C04EB84051F24AC40C5
:10042000A0430D790D3D05EB85050C68AC402043DC
:100430001468E06208680A2812D31068C0680C7853
:100440000A3C04EB44050724AC40A0430D780A3D68
:1004500005EB45058C68AC4020431468E0600FE074
:10046000106800690C7804EB44050724AC40A043F5
:100470000D7805EB45058C68AC402043146820617D
:100480000868102802D00868112827D1174C106876
:10049000A0421ED11068806800F40000F0B9106816
:1004A000806840F400001468A0600868102815D126
:1004B0000F4800680F4CB0FBF4F000EB80004000E8
:1004C000009002E00098401E009000980028F9D1AA
:1004D00004E0906A40F020009062012300BF0020F9
:1004E00082F8240000BF184661E7000000240140A4
:1004F0001C00002040420F0001460868C06C704795
:100500002DE9F0410446002700250026A84614B92D
:100510000120BDE8F081A06810B1207D00B100BFCE
:10052000A06A30B90020E06284F82400204600F080
:1005300097F82046FFF79CFE0746A06A00F01000DF
:10054000002873D1002F7ED1A06A20F4885040F09B
:100550000200A0623F4AD4E90001904208D1E0695C
:10056000B0F5402F02D14FF4002002E0E06900E036
:10057000E0690143207B41EA40000643A068B0F5F2
:10058000807F02D0A068012802D14FF4807000E083
:1005900000200543207D012811D1207B38B9A069B6
:1005A000401E4FF4006141EA4030054307E0A06A75
:1005B00040F02000A062E06A40F00100E0622068A4
:1005C000406820F4694028432168486020688068BA
:1005D00021490840304321688860A068B0F5807FD9
:1005E00002D0A068012802D14FF4807000E0002002
:1005F000B0F5807F03D1208A401E4FEA0058206862
:10060000C06A20F4700040EA08002168C8622068CF
:10061000806812490840B04209D10020E062A06A17
:1006200020F0020040F00100A06211E00BE0A06A9F
:1006300020F0020040F01000A062E06A40F00100EB
:10064000E062012704E0A06A40F01000A0620127E8
:1006500038465EE7003C0140FDF7E1FFFE0E1FFF5C
:1006600010B586B0044600200290039004900590D7
:1006700014492068884222D100BF1348806940F4A1
:100680000070114988610846806900F4007001908B
:1006900000BF00BF00BF0846806940F004008861C9
:1006A0000846806900F00400019000BF00BF0120EF
:1006B00002900320039002A9044800F061FA06B0FA
:1006C00010BD00000024014000100240000801405D
:1006D000F8B504460D46002600200090002700F0E3
:1006E000F5FB06462068806800F4807050B1A06A6F
:1006F00040F02000A06200BF002084F8240000BF6A
:100700000120F8BD2068406800F4807020BB20689C
:10071000C06A00F47000F8B917E0681CA8B125B1F0
:1007200000F0D4FB801BA8420FD92068006800F0BD
:10073000020050B9A06A40F00400A06200BF00208F
:1007400084F8240000BF0320DBE72068006800F085
:1007500002000028E1D053E0022000F0BFFC38493D
:100760000968B1FBF0F021680969364A114091B976
:100770002168C9689211114069B921680969324A32
:10078000114031B92168C9689211114009B9142189
:1007900017E0292115E0216809692B4A114021B988
:1007A0002168C9689211114041B121680969274A3D
:1007B000114029B92168C968114009B9542100E0E4
:1007C000FC2100FB01F718E0681C98B125B100F08E
:1007D0007DFB801BA8420DD90098B8420AD2A06ABE
:1007E00040F00400A06200BF002084F8240000BF95
:1007F000032086E70098401C00900098B842E3D39D
:100800006FF0120021680860A06A40F40070A062D6
:100810002068806800F46020B0F5602F0DD1207B47
:1008200058B9A06A20F48070A062A06A00F48050D9
:1008300018B9A06A40F00100A062002061E7000042
:100840001C00002024499224922449124992240039
:1008500070B50446002500BF94F82400012801D19A
:10086000022070BD012084F8240000BF2046FFF75D
:100870002DFD0546002D77D1A06A40F20121884365
:1008800040F48070A0623C492068884208D13B480F
:10089000006800F4702008B9012002E0002000E0A8
:1008A000012078B1A06A20F48010A062206840681E
:1008B00000F4806000B3A06A20F4005040F480503F
:1008C000A06219E0A06A40F48010A0622B49091FC1
:1008D0002068884203D028492068884204D12748EC
:1008E000006800F4806000E0002028B1A06A20F4D5
:1008F000005040F48050A062A06A00F4805020B103
:10090000E06A20F00600E06201E00020E06200BF43
:10091000002084F8240000BFC01E21680860206801
:10092000806800F46020B0F5602F16D1124920686D
:10093000884208D11148006800F4702008B90120ED
:1009400002E0002000E0012038B12068806840F417
:10095000A000216888600CE006E02068806840F410
:1009600080102168886004E000BF002084F8240023
:1009700000BF284675E7000000280140042401401C
:100980000146002291F82100022808D00420886343
:1009900000BF002081F8200000BF012070470868D8
:1009A000006820F00E000B6818600868006820F0EE
:1009B00001000B68186091F8403001209840CB6B23
:1009C0005860012081F8210000BF002081F820003C
:1009D00000BF1046E2E7000070B50446002594F819
:1009E0002100022803D00420A0630125C1E0206873
:1009F000006820F00E00216808602068006820F080
:100A00000100216808605C492068884252D95A492F
:100A100078392068884201D1012047E0564964397D
:100A20002068884201D1102040E0534950392068A5
:100A3000884201D1801539E04F493C39206888420D
:100A400001D1801432E04C4928392068884202D113
:100A50004FF480302AE0484914392068884202D196
:100A60004FF4801022E044492068884201D14004BC
:100A70001CE042492068884201D1012016E03F492C
:100A800014312068884201D110200FE03B49283101
:100A90002068884201D1801508E038493C3120683F
:100AA000884201D1801401E04FF480303349091F9E
:100AB000086051E0304978392068884201D101202E
:100AC00047E02D4964392068884201D1102040E078
:100AD000294950392068884201D1801539E02649DA
:100AE0003C392068884201D1801432E022492839FB
:100AF0002068884202D14FF480302AE01E49143920
:100B00002068884202D14FF4801022E01A49206800
:100B1000884201D140041CE018492068884201D174
:100B2000012016E0154914312068884201D11020B7
:100B30000FE0124928312068884201D1801508E071
:100B40000E493C312068884201D1801401E04FF405
:100B50008030094980394860012084F8210000BFB5
:100B6000002084F8200000BF606B10B12046616B4C
:100B70008847284670BD00008000024008040240FB
:100B80002DE9F847024600239C467BE14FF001081F
:100B900008FA03F4D1F8008008EA0400A0427DD1ED
:100BA000DFF8F4A2D1F80480A8EB0A09D0453AD0C6
:100BB00014DCB8F1030F50D009DCB8F1000F31D0CC
:100BC000B8F1010F1CD0B8F1020F49D120E0B8F103
:100BD000110F18D0B8F1120F42D11EE0B9F5881FDD
:100BE00025D006DCB9F5803F20D0B9F5801F37D17C
:100BF0001AE0B9F5001F18D0B9F5041F30D117E07D
:100C0000D1F80CC02DE0D1F80C8008F1040C28E0DC
:100C1000D1F80C8008F1080C23E0D1F80C8008F121
:100C20000C0C1EE000BF00BF00BF00BF00BF00BF34
:100C3000D1F80880B8F1000F02D14FF0040C0BE09E
:100C4000D1F80880B8F1010F03D14FF0080C1461FE
:100C500002E04FF0080C546103E04FF0000C00E09C
:100C600000BF00BFFF2801D8904601E002F1040850
:100C70004646FF2802D84FEA830803E0A3F108089C
:100C80004FEA88084746D6F800804FF00F0909FA66
:100C900007F928EA09080CFA07F900E07AE048EABF
:100CA0000908C6F80080D1F8048008F08058B8F12F
:100CB000805F6FD100BFDFF8E481D8F8188048F07A
:100CC0000108DFF8D891C9F81880C846D8F818800C
:100CD00008F00108CDF8008000BF00BF4FEAB93826
:100CE0004FEA930958F829504FEA83784FEA187968
:100CF0004FF00F0808FA09F825EA0805DFF8A08187
:100D0000424502D14FF0000824E0DFF898814245C7
:100D100002D14FF001081DE0DFF88C81424502D17D
:100D20004FF0020816E0DFF88481424502D14FF00F
:100D300003080FE0DFF87881424502D14FF0040844
:100D400008E0DFF87081424502D14FF0050801E06C
:100D50004FF006084FEA83794FEA197908FA09F843
:100D600048EA0505DFF850814FEA930948F8295011
:100D7000D1F8048008F48018B8F5801F0BD1DFF893
:100D80003C81D8F8008048EA0008DFF83091C9F8C3
:100D900000800AE075E0DFF82481D8F8008028EAB6
:100DA0000008DFF81891C9F80080D1F8048008F431
:100DB0000018B8F5001F0ED1DFF8008108F1040813
:100DC000D8F8008048EA0008DFF8F09009F104093B
:100DD000C9F800800DE0DFF8E48008F10408D8F8D5
:100DE000008028EA0008DFF8D49009F10409C9F866
:100DF0000080D1F8048008F40038B8F5003F0ED127
:100E0000DFF8B880A8F10408D8F8008048EA0008A4
:100E1000DFF8A890A9F10409C9F800800DE0DFF817
:100E20009C80A8F10408D8F8008028EA0008DFF8C0
:100E30008C90A9F10409C9F80080D1F8048008F465
:100E40008038B8F5803F0ED1DFF87080A8F108082F
:100E5000D8F8008048EA0008DFF86090A9F1080996
:100E6000C9F800800DE0DFF85480A8F10808D8F830
:100E7000008028EA0008DFF84490A9F10809C9F8C1
:100E800000805B1CD1F8008028FA03F8B8F1000F4D
:100E90007FF47CAEBDE8F88700001110001002401E
:100EA00000080140000C0140001001400014014006
:100EB00000180140001C01400800014008040140E6
:100EC0000AB1016101E00B04036170470148006849
:100ED00070470000100000200348006803490978AB
:100EE00008440149086070471000002018000020E5
:100EF00010B50848006840F010000649086003205B
:100F000000F0D8F80F2000F007F800F055F80020A6
:100F100010BD000000200240F0B587B00446002656
:100F20000027002500BF1F48806940F400601D496C
:100F300088610846806900F40060009000BF00BF2F
:100F400001A902A800F0B4FA00F0EAFA0646164831
:100F5000B6FBF0F0471E15481549086040F2E7312E
:100F60001348C1604760002101618160816100F028
:100F700053FD054695B90E4800F082FD05466DB952
:100F8000192000F049F8102C07D200222146192020
:100F900000F052F80748046000E00125284607B039
:100FA000F0BD00000010024040420F00002C014044
:100FB000500300201400002008B500BF14488069C9
:100FC00040F00100124988610846806900F0010084
:100FD000009000BF00BF00BF0846C06940F08050CD
:100FE000C8610846C06900F08050009000BF00BF93
:100FF00000220F21901E00F01FF800BF054948682D
:1010000020F0E06040F00070486000BF08BD0000C4
:10101000001002400000014001460846002809DB9C
:1010200000F01F0301229A4043099B0003F1E023D3
:10103000C3F8002100BF70472DE9F05F80460D46E0
:101040001646002701F056FC074639462A46334625
:1010500001F00700C0F1070ABAF1040F02D94FF0FE
:10106000040A01E0C0F1070AD14600F1040ABAF10E
:10107000070F02D24FF0000A01E0A0F1030AD446A4
:101080004FF0010A0AFA09FAAAF1010A0AEA020A69
:101090000AFA0CFA4FF0010B0BFA0CFBABF1010B47
:1010A0000BEA030B4AEA0B042146404601F02AFCF6
:1010B000BDE8F09F00BF00F00702064B19684FF62D
:1010C000FF031940044B0B4343EA0221014B196013
:1010D00000BF70470CED00E00000FA052DE9F04775
:1010E00006464FF00008002500270024A146042EE4
:1010F00037D004DC012E3CD0022E6CD160E0082EEB
:1011000033D0102E67D136484468006800F08070F4
:1011100008B33448C4F38341475C04F4803078B1A9
:101120002F484068C0F340402F4911F8008004F474
:10113000803040B12D48B0FBF8F000FB07F502E02D
:101140002B4807FB00F52648406800F48000B0F506
:10115000800F01D1A94603E068000321B0FBF1F93B
:101160003AE000F0EDF9814636E000F0E9F9814619
:1011700032E01B48046A04F44070B0F5807F05D16A
:1011800004F0020010B14FF4004918E004F440707C
:10119000B0F5007F07D11248406A00F0020010B19C
:1011A00049F640490BE004F44070B0F5407F06D1A9
:1011B0000B48006800F4003008B14FF224490BE0FE
:1011C00000F0AEF906494968C1F38131491C490074
:1011D000B0FBF1F900E000BF00BF4846BDE8F08772
:1011E00000100240AA3C0008BA3C000800127A0035
:1011F00000093D00F8B5044600260025207800F0DF
:10120000010000286BD000274348C06900F08050DF
:1012100070B900BF4048C06940F080503E49C86185
:101220000846C06900F08050009000BF00BF012751
:101230003A48006800F48070B0B93848006840F45B
:10124000807036490860FFF741FE064606E0FFF76A
:101250003DFE801B642801D90320F8BD2F4800689B
:1012600000F480700028F2D02B48006A00F440752A
:101270002DB3A08800F44070A84220D02648006A10
:1012800020F44075012026490860002008602248AB
:10129000056205F0010090B1FFF718FE064608E070
:1012A000FFF714FE801B41F28831884201D90320E8
:1012B000D3E71948006A00F002000028F0D0164871
:1012C000006A20F440706168084313490862012FE6
:1012D00004D10846C06920F08050C86100BF207862
:1012E00000F00200022807D10B48406820F440407B
:1012F000A168084308494860207800F010001028D1
:1013000007D10548406820F480006169084302491C
:1013100048600020A1E7000000100240007000407B
:101320004004424270B504460D460CB9012070BD20
:101330005A48006800F00700A8420ED257480068DB
:1013400020F007002843554908600846006800F06F
:101350000700A84201D00120E9E7207800F0020050
:1013600002281DD1207800F00400042805D14C4843
:10137000406840F4E0604A494860207800F0080086
:10138000082805D14648406840F460504449486008
:101390004348406820F0F000A16808434049486095
:1013A000207800F0010078B36068012806D13C483D
:1013B000006800F4003090B90120B8E760680228A6
:1013C00006D13748006800F0007040B90120AEE750
:1013D0003348006800F0020008B90120A7E7304850
:1013E000406820F00300616808432D494860FFF71A
:1013F0006DFD064609E0FFF769FD801B41F288316B
:10140000884202D9032092E707E02548406800F0AF
:101410000C006168B0EB810FEDD12048006800F04E
:101420000700A8420ED91D48006820F00700284395
:101430001A4908600846006800F00700A84201D079
:10144000012074E7207800F00400042807D1144834
:10145000406820F4E060E168084311494860207862
:1014600000F00800082808D10D48406820F46050BA
:10147000216940EAC1000A49486000F061F8084962
:101480004968C1F30311074A515CC8400649086026
:1014900006480068FFF740FD002048E700200240B2
:1014A00000100240BC3C00081C000020140000207A
:1014B0000F2202600D4A526802F0030242600B4A9A
:1014C000526802F0F0028260084A526802F4E06258
:1014D000C260064A526802F46052D2080261044AAD
:1014E000126802F007020A60704700000010024014
:1014F0000020024001480068704700001C000020E6
:1015000000B5FFF7F7FF04494968C1F30221034A18
:10151000515CC84000BD000000100240CC3C0008F7
:1015200000B5FFF7E7FF04494968C1F3C221034A48
:10153000515CC84000BD000000100240CC3C0008D7
:1015400070B500210022002400230020134D69689B
:1015500001F00C05F5B1042D02D0082D19D101E0E0
:101560000F4819E00F4DC1F38346AB5D01F48035A0
:1015700055B10A4D6D68C5F340450B4E725D084D7F
:101580005D43B5FBF2F402E0084D03FB05F4204691
:1015900002E000BF024800BF00BF70BD0010024063
:1015A00000127A00983C0008A83C000800093D00A1
:1015B000F8B504460CB90120F8BD207800F0010010
:1015C000002878D0F848406800F00C0004280CD0BF
:1015D000F548406800F00C00082811D1F248406836
:1015E00000F48030B0F5803F0AD1EF48006800F485
:1015F000003000285FD0606800285CD10120DBE764
:1016000000BF6068B0F5803F06D1E748006840F44D
:101610008030E549086028E0606858B9E248006811
:1016200020F48030E04908600846006820F48020FB
:1016300008601AE06068B0F5A02F0BD1DA480068A6
:1016400040F48020D84908600846006840F48030A3
:1016500008600AE0D448006820F48030D24908606D
:101660000846006820F48020086000BF606888B1E8
:10167000FFF72CFC054606E0FFF728FC401B64281A
:1016800001D9032098E7C848006800F4003000281A
:10169000F2D010E0FFF71AFC054606E0FFF716FC53
:1016A000401B642801D9032086E7BF48006800F486
:1016B00000300028F2D1207800F00200022857D133
:1016C000B948406800F00C0050B1B748406800F0DD
:1016D0000C00082818D1B448406800F4803098B94C
:1016E000B148006800F0020020B12069012801D053
:1016F000012061E7AC48006820F0F800616940EA29
:10170000C100A949086033E02069E8B10120A74978
:101710000860FFF7DBFB054606E0FFF7D7FB401B41
:10172000022801D9032047E79F48006800F0020023
:101730000028F2D09C48006820F0F800616940EA77
:10174000C1009949086013E0002098490860FFF73C
:10175000BDFB054606E0FFF7B9FB401B022801D997
:10176000032029E79048006800F002000028F2D129
:10177000207800F0080008282DD1A069B8B1012018
:101780008B490860FFF7A2FB054606E0FFF79EFBCA
:10179000401B022801D903200EE78348406A00F06D
:1017A00002000028F2D0012000F004FE13E0002027
:1017B0007F490860FFF78AFB054606E0FFF786FBD6
:1017C000401B022801D90320F6E67748406A00F062
:1017D00002000028F2D1207800F00400042873D120
:1017E00000277148C06900F0805070B900BF6E4892
:1017F000C06940F080506C49C8610846C06900F07B
:101800008050009000BF00BF01276A48006800F4C4
:101810008070B0B96748006840F48070654908601E
:10182000FFF754FB054606E0FFF750FB401B64281A
:1018300001D90320C0E65F48006800F480700028EA
:10184000F2D000BFE068012806D15748006A40F096
:1018500001005549086227E0E06858B95248006A1B
:1018600020F00100504908620846006A20F0040098
:10187000086219E0E06805280BD14B48006A40F087
:101880000400494908620846006A40F00100086205
:101890000AE04548006A20F0010043490862084612
:1018A000006A20F00400086200BFE068A0B1FFF702
:1018B0000DFB054609E0FFF709FB401B41F28831AB
:1018C000884202D9032077E622E03748006A00F018
:1018D00002000028EFD012E0FFF7F8FA054608E012
:1018E000FFF7F4FA401B41F28831884201D9032006
:1018F00062E62D48006A00F002000028F0D1012FB6
:1019000005D12948C06920F080502749C86100BF2F
:10191000E069C8B32448406800F00C00082860D093
:10192000E069022848D1002020490866FFF7CEFA76
:10193000054606E0FFF7CAFA401B022801D903203A
:101940003AE61948006800F000700028F2D1206AD9
:10195000B0F5803F07D11448406820F40030A168FA
:10196000084311494860D4E9080108430E49496811
:1019700021F4741108430C49486001200B490866A2
:10198000FFF7A4FA054607E03DE0FFF79FFA401B8A
:10199000022801D903200FE60348006800F0007018
:1019A0000028F2D02FE00000001002400000424268
:1019B0008004424200700040002014490866FFF78E
:1019C00085FA054606E0FFF781FA401B022801D997
:1019D0000320F1E50E48006800F000700028F2D105
:1019E00011E0E069012800D1E6E50948466806F4FF
:1019F0008031206A814204D106F47011606A81420C
:101A000001D00120D8E50020D6E5000000004242C8
:101A1000001002407047704710B504460CB9012011
:101A200010BD94F83D0028B9002084F83C00204601
:101A300000F025F8022084F83D00211D206800F008
:101A400033FD012084F8460000BF84F83E000121E8
:101A50003F200155402001554120015500BF00BFE6
:101A6000012084F8420043200155442001554520BF
:101A7000015500BF012084F83D000020D0E77047E9
:101A8000014691F83D00012801D001207047022055
:101A900081F83D000868C06840F001000B68D8601C
:101AA000164B0868984213D0154B086898420FD01F
:101AB0000868B0F1804F0BD0124B0868984207D0ED
:101AC000114B0868984203D0104B086898420CD11B
:101AD0000868806800F00702062A0CD008680068D1
:101AE00040F001000B68186005E00868006840F0ED
:101AF00001000B6818600020C8E70000002C0140BE
:101B0000003401400004004000080040000C004088
:101B1000704710B5044620680069C0F34000D8B192
:101B20002068C068C0F34000B0B16FF002002168C7
:101B30000861012020772068806900F0030018B157
:101B40002046FFF7E5FF05E0204600F0ADF820460F
:101B500000F0ABF80020207720680069C0F3800017
:101B6000D8B12068C068C0F38000B0B16FF0040045
:101B700021680861022020772068806900F44070A5
:101B800018B12046FFF7C4FF05E0204600F08CF8AE
:101B9000204600F08AF80020207720680069C0F312
:101BA000C000D8B12068C068C0F3C000B0B16FF009
:101BB000080021680861042020772068C06900F0CF
:101BC000030018B12046FFF7A3FF05E0204600F010
:101BD0006BF8204600F069F8002020772068006943
:101BE000C0F30010D8B12068C068C0F30010B0B1D5
:101BF0006FF0100021680861082020772068C06914
:101C000000F4407018B12046FFF782FF05E020463F
:101C100000F04AF8204600F048F8002020772068BD
:101C2000006900F0010058B12068C06800F00100B0
:101C300030B16FF0010021680861204600F036F8ED
:101C400020680069C0F3C01058B12068C068C0F3B4
:101C5000C01030B16FF08000216808612046FFF7A6
:101C6000D9FE20680069C0F3801058B12068C068B0
:101C7000C0F3801030B16FF0400021680861204649
:101C800000F020F820680069C0F3401058B12068C7
:101C9000C068C0F3401030B16FF0200021680861C7
:101CA0002046FFF7B8FE10BD7047704710B50446D8
:101CB00003492068884201D1FFF70EF910BD0000EA
:101CC000002C014070477047704700002DE9F84F25
:101CD0000446206805682068C668206847694FF098
:101CE0000009CA4605F00F09B9F1000F0AD105F045
:101CF000200038B106F0200020B1204600F072FC30
:101D0000BDE8F88FB9F1000F7BD007F0010018B9DA
:101D100006F49070002874D005F0010030B106F48C
:101D2000807018B1606C40F00100606405F0040040
:101D300030B107F0010018B1606C40F0020060643F
:101D400005F0020030B107F0010018B1606C40F0FE
:101D50000400606405F0080048B106F0200010B9E6
:101D600007F0010018B1606C40F008006064606C1E
:101D7000002845D005F0200028B106F0200010B161
:101D8000204600F02FFC20684069C0F3801A606C88
:101D900000F0080010B9BAF1000F2CD0204600F076
:101DA000DBFB2068406900F0400000B300BF00BFCB
:101DB0002168143151E8001F21F0400021681431DE
:101DC00041E80002002AF3D100BFE06B50B1774830
:101DD000E16B4863E06BFEF7FFFD88B1E06B416BA0
:101DE00088470DE02046FFF76FFF09E009E0204635
:101DF000FFF76AFF04E02046FFF766FF00206064FB
:101E00007EE7206B012877D105F01000002873D001
:101E100006F010000028FAD000BF002000902068D3
:101E20000068009020684068009000BF00BF2068F4
:101E3000406900F0400000285FD0E06B0068406817
:101E40001FFA80F8B8F1000F55D0A08D404552DD43
:101E5000A4F82E80E06B8069202843D000BF00BF2B
:101E600021680C3151E8001F21F4807021680C3189
:101E700041E80002002AF3D100BF00BF00BF216883
:101E8000143151E8001F21F001002168143141E8AC
:101E90000002002AF3D100BF00BF00BF2168143147
:101EA00051E8001F21F040002168143141E8000290
:101EB000002AF3D100BF202084F8420000202063D4
:101EC00000BF00BF21680C3151E8001F21F0100055
:101ED00021680C3141E80002002AF3D100BFE06B19
:101EE000FEF74EFD02206063A08DE28D801A81B264
:101EF0002046FFF7E8FE03E742E0A08DE18D401A9F
:101F00001FFA80F8E08DD0B3B8F1000F37D000BFD2
:101F100000BF21680C3151E8001F21F49070216846
:101F20000C3141E80002002AF3D100BF00BF00BF1E
:101F30002168143151E8001F21F00100216814319B
:101F400041E80002002AF3D100BF202084F84200BB
:101F50000020206300BF00BF21680C3151E8001F42
:101F600021F0100021680C3141E80002002AF3D171
:101F700000BF0220606341462046FFF7A4FEBFE693
:101F800005F0800030B106F0800018B1204600F066
:101F900025FCB5E605F0400030B106F0400018B170
:101FA000204600F00FFBABE600BFA9E64525000880
:101FB00010B504460CB9012010BDA06900B100E0C5
:101FC00000BF94F8410028B9002084F84000204662
:101FD00000F02AF8242084F841002068C06820F42A
:101FE00000502168C860204600F07AFB2068006934
:101FF00020F49040216808612068406920F02A00A0
:10200000216848612068C06840F400502168C860B9
:1020100000206064202084F8410084F84200002001
:10202000606300BFC8E7000010B586B0044600201A
:1020300002900390049005901E492068884236D192
:1020400000BF1D48806940F480401B4988610846F4
:10205000806900F48040019000BF00BF00BF0846C7
:10206000806940F0040088610846806900F004003F
:10207000019000BF00BF481502900220039003208A
:10208000059002A90D48FEF77BFD4FF48060029099
:1020900000200390049002A90848FEF771FD002279
:1020A00005212520FEF7C8FF2520FEF7B5FF06B065
:1020B00010BD00000038014000100240000801403F
:1020C00070472DE9F84F04460E46174699464FF0E3
:1020D000000A94F8410020284AD106B117B901201E
:1020E000BDE8F88F00206064212084F84100FEF7ED
:1020F000EDFE8246A784E784A068B0F5805F04D136
:10210000206910B90025B04602E035464FF00008BE
:102110001BE05346002280212046CDF8009000F0BD
:102120008DFB08B10320DBE745B9B8F80000C0F328
:1021300008002168486008F1020803E02878216857
:1021400048606D1CE08C401EE084E08C0028E0D1EB
:102150005346002240212046CDF8009000F06EFB4F
:1021600008B10320BCE7202084F841000020B7E735
:102170000220B5E7704700BFFEE700000EB5002063
:102180000090019002901348134908600021124802
:10219000816001210173002101754FF46021C1614B
:1021A00000200D49486001210B480161FEF7A8F9A4
:1021B00008B1FEF7EDF8002000900120019000200A
:1021C000029069460448FEF7E7F808B1FEF7E0F828
:1021D0000EBD000000240140D802002000B599B0D7
:1021E000184B0FCBCDE91723CDE91501002115A818
:1021F00000F0F5FB144908601C22124910310EA8AA
:10220000FEF700F800210EA800F0FEFB0F49086061
:102210001C220C492C3107A8FDF7F4FF002107A868
:1022200000F0F2FB0A4908601C2206494831684662
:10223000FDF7E8FF0021684600F0E6FB054908606D
:1022400019B000BD343C00080C0000200000002044
:10225000040000200800002000B585B00020019097
:1022600002900390049000BF1648806940F004007B
:10227000144988610846806900F00400009000BF9E
:1022800000BF00BF0846806940F00800886108462A
:10229000806900F00800009000BF00BF01222021EB
:1022A0000948FEF70DFE2020019001200290002039
:1022B00003900320049001A90348FEF761FC05B0D8
:1022C00000BD000000100240000C014010B50B489A
:1022D0000B4908604FF4E1304860002108488160F4
:1022E000C16001610C21416100218161C161FFF781
:1022F0005FFE08B1FEF74CF810BD00000038014049
:102300000803002000BFFEE78CB0182101A8FDF7EC
:1023100092FF25E0012220211248FEF7D1FD12484C
:10232000FEF796FA64211048FEF7D2F9002406E081
:102330000D48FEF7E1F807A921F81400641C0A2CE7
:10234000F6DB01A907A8FEF70BF800235A1E01A926
:102350000648006801F006F94FF47A7000F036FF85
:10236000D8E70000000C0140D80200200C0000203B
:1023700086B016E0002220210A48FEF7A1FD4FF0AA
:10238000FF3269460848006801F0A4F94FF0FF33B6
:10239000162269460548FFF794FE4FF47A7000F064
:1023A00015FFE7E7000C01400C00002008030020A7
:1023B00000BFFEE708B508490968C9084FF47A72FA
:1023C000B1FBF2F14143009100BF00BF00994A1EEA
:1023D00000920029F9D108BD1C00002000BF012097
:1023E00000F0F0FAFBE7000010B5502080F31188F0
:1023F000BFF34F8FBFF36F8F01F0C4FA18B10449D8
:102400004FF080500860002080F3118810BD00005C
:1024100004ED00E000B595B028210BA8FDF70BFFF7
:10242000142106A8FDF707FF18216846FDF703FFF2
:1024300001200B9000040C9000200D9001200F90C3
:1024400002201290C10313914FF4E01114910BA8D4
:10245000FFF7AEF808B1FDF79BFF0F2006900220B2
:102460000790002008904FF48060099000200A90A7
:10247000022106A8FEF756FF08B1FDF789FF0220EA
:102480000090800302906846FEF7B4FE08B1FDF7A5
:102490007FFF15B000BD704710B50248FFF739FB4C
:1024A00010BD00005003002010B50268204B984278
:1024B0000ED0204B98420BD0B0F1804F08D01E4B6D
:1024C000984205D01D4B984202D01D4B984203D133
:1024D00022F070024B681A43154B98420ED0154BF0
:1024E00098420BD0B0F1804F08D0134B984205D0E2
:1024F000124B984202D0124B984203D122F4407200
:10250000CB681A4322F080034C6943EA040202605C
:102510008B68C3620B688362054B984202D0054BFF
:10252000984201D10B6903630123436110BD000090
:10253000002C01400034014000040040000800402D
:10254000000C004070B505466C6A0020E085E08410
:102550002046FFF7B9FB70BD00BF00BF02680C3218
:1025600052E8002F22F4907102680C3242E8001306
:10257000002BF3D100BF00BF00BF0268143252E845
:10258000002F22F001010268143242E80013002BF0
:10259000F3D100BF016B01290ED100BF00BF02685B
:1025A0000C3252E8002F22F0100102680C3242E88F
:1025B0000013002BF3D100BF202180F8421000212E
:1025C0000163704710B504462068C06820F04000E1
:1025D0002168C860202084F841002046FFF7CAFD2A
:1025E000002010BDF8B5044694F84200222875D1A9
:1025F000A068B0F5805F0CD1206950B90025A66AAB
:1026000020684068C0F308003080A06A801CA06287
:1026100015E0A56A0026A068B0F5805F03D0A06829
:1026200028B9206918B920684068287004E020683B
:10263000406800F07F002870A06A401CA062E08D16
:10264000401E80B2E085002846D12068C06820F096
:1026500020002168C8602068C06820F4807021686C
:10266000C8602068406920F001002168486120208E
:1026700084F8420000206063206B012826D10020EE
:10268000206300BF00BF21680C3151E8001F21F01A
:10269000100021680C3141E80002002AF3D100BF8C
:1026A0002068006800F0100010280AD100BF002048
:1026B000009020680068009020684068009000BF8B
:1026C00000BFA18D2046FFF7FEFA02E02046FFF78B
:1026D000F7FC0020F8BD01E00020FBE70220F9E74D
:1026E00070B504462168096921F44051E26811433C
:1026F000226811612269A1681143626941EA0205F9
:102700002168C96841F20C62914329432268D16073
:102710002168496921F44071A2691143226851611D
:102720002D4A2168914202D1FEF7FAFE01E0FEF740
:10273000E7FE00EBC00101EB001162689200B1FB03
:10274000F2F100EBC00202EB001263689B00B2FBE7
:10275000F3F26423B2FBF3F202EBC20303EB0212C7
:10276000A1EB8201322202EB01116422B1FBF2F1F2
:1027700001F0F00100EBC00202EB001263689B0065
:10278000B2FBF3F26423B2FBF3F201EB021200EBB3
:10279000C00101EB001163689B00B1FBF3F100EB9A
:1027A000C00303EB00136668B600B3FBF6F36426C0
:1027B000B3FBF6F303EBC30606EB0313A1EB8301B4
:1027C000322303EB01116423B1FBF3F101F00F019C
:1027D00011442268916070BD00380140014691F8B3
:1027E0004100212828D18868B0F5805F0BD10869A5
:1027F00048B90A6A1088C0F308000B685860086A74
:10280000801C086205E00B6A581C086218780B6887
:102810005860C88C401E80B2C88458B90868C06827
:1028200020F080000B68D8600868C06840F0400065
:102830000B68D860002070470220FCE72DE9F041CA
:1028400004460D4617469846069E34E0701C88B331
:102850002EB1FEF73BFBA0EB0800B0422BD900BF26
:1028600000BF21680C3151E8001F21F4D0702168AD
:102870000C3141E80002002AF3D100BF00BF00BFC5
:102880002168143151E8001F21F001002168143142
:1028900041E80002002AF3D100BF202084F8410063
:1028A00084F8420000BF002084F8400000BF0320ED
:1028B000BDE8F081FFE7206800682840A84201D108
:1028C000012000E00020B842C0D00020F0E7000066
:1028D00010B50248FFF7FAF910BD00000803002008
:1028E00000BFFEE7014A024900F02FB86D29000839
:1028F0008000002002480068C0F3022070470000FA
:102900000CED00E010B5002804DB0A07130E054AA1
:10291000135406E00A07140E034A00F00F031B1FAE
:10292000D45410BD00E400E018ED00E002E008C857
:10293000121F08C1002AFAD170477047002001E039
:1029400001C1121F002AFBD170472DE9F041164644
:102950000F460446002503E03946B047641C6D1C51
:1029600020780028F8D12846BDE8F08113B50C4640
:102970004FF6FF73012269460248FFF7A2FB009859
:102980001CBD000008030020FEF7B2FAFFF742FD6D
:10299000FFF762FCFFF7F2FBFFF798FCFFF71EFC66
:1029A00000F018F802E002A0FFF79CFFFBE7000030
:1029B00068656C6C6F0D0A000021842800D0C11C72
:1029C0000846704710B5002800D1012000F0FEFB3A
:1029D000002010BD10B500F049FC002010BD08B566
:1029E0008268D0F800C04168002A07D0C3682BB1C4
:1029F00000200090604600F034FD08BDBDE80840AE
:102A00000022604600F008BD30B585B004460D4692
:102A10006169B4F90800002910D0A16971B1FFF70C
:102A2000CBFF6269A1690192029100902B46226955
:102A30002168606800F068FF049010E0FFF7BCFFB9
:102A400004A901910090208A2B4682B22168606817
:102A500000F024FF012802D005B0002030BD04980A
:102A600005B030BD2DE9F04104460F46194E756999
:102A70003068001D00F0DEFA48B93068012190F896
:102A80002C0001FA00F0B16921EA0000B061B4F154
:102A9000FF3F07D137B13068BDE8F041011D0E4856
:102AA00000F011BB2C4430684460AC4206D2306860
:102AB000011DB068BDE8F04100F0EABA3068011DC0
:102AC000706800F0E5FA306B844200D23463BDE8F0
:102AD000F0810000200000207404002070B504463E
:102AE00000F0FEFA1C4D2869401C2861286810B1CE
:102AF000E86938B10CE02C602869012808D100F0A1
:102B00003DF905E02868E16AC06A884200D82C6077
:102B1000E86A401CE862E06A0121AA698140114329
:102B2000A9610E4900EB800001EB8000211D00F03F
:102B3000CAFA00F0F5FAE86900280CD02868E16AC2
:102B4000C06A884207D206494FF080500860BFF340
:102B50004F8FBFF36F8F70BD2000002098030020BF
:102B600004ED00E070B50D4CE068002815D00C4E67
:102B700000F0B6FAF068C568281D00F05BFA20691D
:102B8000401E2061E068401EE06000F0C9FA28465F
:102B900000F051F8E0680028EAD170BD2000002064
:102BA000600400200B46026C002A0CD0C16811445E
:102BB000C160D0F804C0614501D30168C160C1683B
:102BC0001846FDF71FBB70472DE9F0410446164635
:102BD0000027A56B226C002A10D0C6B1E068FDF773
:102BE00011FBE168206C091AE1602268914202D26F
:102BF0006168081AE060022E16D017E02068A8B9B4
:102C0000606800F027FF0746002060600EE0A068C3
:102C1000FDF7F8FA216CA0680844A060616888425A
:102C200004D32068A06001E005B16D1E681CA0639C
:102C30003846BDE8F08110B5044694F851100029DB
:102C40000BD0012911D0022914D0502080F3118813
:102C5000BFF34F8FBFF36F8FFEE7206B00F076FA64
:102C60002046BDE8104000F071BA2046BDE8104093
:102C700000F06CBA10BD00004FF44061104810F035
:102C8000070F06D0C01D20F007000D49411AC1F5FD
:102C900040610C4A1060002353600144083921F060
:102CA0000701103A11604B600B600B1A4360016022
:102CB0004068906050604FF00040D0607047000066
:102CC000880400206C000020074E4FF08054074D10
:102CD000FFF748FF30680128FAD92C60BFF34F8F07
:102CE000BFF36F8FF4E700009803002004ED00E0CD
:102CF00003460098002905D00260C36301640121E6
:102D000000F0E8BB0060F8E72DE9F0478146099E36
:102D1000089D0A9C9A46521E206B00EB820020F010
:102D200007080027002023180A5C83F834200A5C77
:102D300012B1401C1028F6D384F84370072D00D33D
:102D40000625E5626564A764201D00F09EF904F184
:102D5000180000F09AF92461C5F10700A0616462CF
:102D6000E76484F8507052464946404600F050F9F6
:102D70002060002E00D03460BDE8F08770B50024DC
:102D80000F4D04EB840005EB800000F073F9641C28
:102D9000072CF6D30B4800F06DF90B4800F06AF9E8
:102DA0000A4800F067F90A4800F064F9094800F0A1
:102DB00061F90948034941601431816070BD000028
:102DC0009803002024040020380400204C04002034
:102DD00060040020740400202000002010B4144976
:102DE00000E011460A688242FBD34B6803EB010CFA
:102DF000844503D140681844486008460C68D0F800
:102E000004C00CEB0003A3420CD10A4B1B689A428E
:102E100006D05268624442600A681268026002E0AA
:102E2000036000E00260814200D0086010BC70477F
:102E30006C0000205C00002010B5044600F050F942
:102E4000A06B20B1002400F06BF9204610BD0124D6
:102E5000F9E710B5044600F043F9A06BE16B884236
:102E600001D1012400E0002400F05AF9204610BDF1
:102E7000074948680068002805D04868C068C068ED
:102E80004068086370474FF0FF30086370470000E8
:102E9000200000200A484068B0F1FF3F07D05020D2
:102EA00080F31188BFF34F8FBFF36F8FFEE7502081
:102EB00080F31188BFF34F8FBFF36F8FFEE70000E1
:102EC0007400002070B5044600F00AF994F94550EA
:102ED000002D0CDD606A50B104F1240000F008FE02
:102EE00008B100F0A3F9681E45B2002DF2DC4FF0E6
:102EF000FF3684F8456000F013F900F0F1F894F91A
:102F00004450002D0CDD206950B104F1100000F098
:102F1000EFFD08B100F08AF9681E45B2002DF2DC21
:102F200084F84460BDE8704000F0FAB82DE9F04143
:102F30000546002600F0DEF9334F386808B9FFF780
:102F40009BFEF86805424ED19DB1083515F0070F7C
:102F50000FD005F00700C0F10800054415F0070F79
:102F600007D0502080F31188BFF34F8FBFF36F8FCE
:102F7000FEE7002D37D07868854234D823490846CB
:102F8000046801E0214604466068A84202D2206835
:102F90000028F7D13868844225D0086800F1080677
:102FA000206808606068411B10290FD9601910F073
:102FB000070F07D0502080F31188BFF34F8FBFF366
:102FC0006F8FFEE741606560FFF708FF6168786812
:102FD000401A7860BA68904200D2B860F868084336
:102FE00060600020206000F0BFFD16F0070F07D0E2
:102FF000502080F31188BFF34F8FBFF36F8FFEE730
:103000003046BDE8F08100005C0000206C0000202C
:10301000001F4FF080730360001F21F00101016069
:10302000001F034901601438026020387047000017
:10303000952E00080169436882689A608368426837
:103040005A604A68824201D182684A600022026165
:103050000868401E0860086870470000034B036062
:10306000034B0B6080231360704700008400002036
:10307000D800002000F1080141604FF0FF3282606B
:10308000C16001610021016070470021016170474A
:1030900010B4D1F800C0BCF1FF3F02D000F108022B
:1030A00002E0026904E01A4653681C686445FAD9D4
:1030B00053684B6099608A60516008610168491CDF
:1030C000016010BC704742684A6093688B609368E7
:1030D0005960916008610168491C016070470000F7
:1030E000502080F31188BFF34F8FBFF36F8F0A49D1
:1030F0004868401C486001280CD10848006810F05E
:10310000FF0F07D0502080F31188BFF34F8FBFF31C
:103110006F8FFEE7704700007400002004ED00E0B0
:1031200009494868002806D0401E4860002801D19F
:1031300080F311887047502080F31188BFF34F8FC0
:10314000BFF36F8FFEE700007400002070B5002809
:1031500027D0A0F10804134D6068E968084207D140
:10316000502080F31188BFF34F8FBFF36F8FFEE7BE
:1031700022683AB1502080F31188BFF34F8FBFF31C
:103180006F8FFEE78843606000F0B4F8606869689C
:10319000084468602046FFF721FEBDE8704000F05B
:1031A000E3BC70BD5C0000204FF0E0200021016115
:1031B000816105494FF47A720968B1FBF2F1491E49
:1031C00041610721016170471C00002010B50246D3
:1031D0000020002A12D00F48806B38B1502080F3B5
:1031E0001188BFF34F8FBFF36F8FFEE700F082F8B7
:1031F00000211046FFF736FC00F0B6FC002807D18E
:1032000005494FF080500860BFF34F8FBFF36F8FB9
:1032100010BD00002000002004ED00E002498A6A91
:103220000260496941607047200000200149012087
:10323000486270472000002010B50C4600280BD0D3
:10324000094A126802F11801FFF722FF2046BDE883
:1032500010400121FFF706BC502080F31188BFF316
:103260004F8FBFF36F8FFEE72000002010B586B0B0
:1032700000240594049403AA04A905A8FFF7EEFE10
:1032800005980499019102900023009415A1174814
:10329000039A00F039FB1649486308B1012000E0A9
:1032A000002001280AD0B0F1FF3F19D1502080F34F
:1032B0001188BFF34F8FBFF36F8FFEE7502080F36D
:1032C0001188BFF34F8FBFF36F8F4FF0FF3008634C
:1032D0000120C8614C6106B0BDE8104000F042B862
:1032E00006B010BD49444C4500000000C92C000840
:1032F000200000200248816B491C81637047000058
:1033000020000020154A906B002802D00120506256
:103310007047002050629069B0FA80F0C0F11F0041
:103320000F4900EB800051F8203073B101EB8000B1
:1033300041684968416000F10803994201D1496838
:1033400041604068C06810607047502080F3118869
:10335000BFF34F8FBFF36F8FFEE700002000002008
:103360009803002000B583B0284908780290FF2018
:103370000870087801909DF804009DF8042000F082
:10338000F000904207D0502080F31188BFF34F8F98
:10339000BFF36F8FFEE79DF804001D4B00F0500057
:1033A0001870072098609DF8040010F0800F0BD073
:1033B0009868401E98609DF80400400001909DF8B8
:1033C000040010F0800FF3D19868032807D0502034
:1033D00080F31188BFF34F8FBFF36F8FFEE74FF479
:1033E00040709860029808700A48016841F47001C2
:1033F0000160016841F070410160FFF7D5FE0020D7
:103400005860FCF7B3FE03B0002000BD00E400E00C
:103410007400002020ED00E0F8B505460E46174682
:10342000002D14D0DEB105FB06F04830FFF77EFD1D
:10343000044654B104F14802002084F846003B469B
:10344000314628460094FFF753FC2046F8BD502033
:1034500080F31188BFF34F8FBFF36F8FFEE700201B
:10346000E3E738B5049D002804D05BB102B189B10F
:10347000C2B120E0502080F31188BFF34F8FBFF31B
:103480006F8FFEE7502080F31188BFF34F8FBFF39B
:103490006F8FFEE7502080F31188BFF34F8FBFF38B
:1034A0006F8FFEE739B1502080F31188BFF34F8F43
:1034B000BFF36F8FFEE74FF0480CCDF800C01C46FD
:1034C000012384F846302B460094FFF711FC204678
:1034D00038BD000070B504460D46002C25D0FFF71E
:1034E000FFFD226CE16B206801FB020060600020A0
:1034F000A0632068A060E16B226C2068491E01FB7C
:103500000200E0604FF0FF3084F8440084F845008A
:103510009DB104F11000FFF7ADFD04F12400FFF7A9
:10352000A9FDFFF7FDFD012070BD502080F311883B
:10353000BFF34F8FBFF36F8FFEE720690028F0D0F5
:1035400004F1100000F0D4FA0028EAD004494FF04A
:1035500080500860BFF34F8FBFF36F8FE1E700002B
:1035600004ED00E02DE9FF4782B004468A461F467D
:103570000025002C03D0BAF1000F08D011E0502034
:1035800080F31188BFF34F8FBFF36F8FFEE7206C7E
:1035900038B1502080F31188BFF34F8FBFF36F8F86
:1035A000FEE7022F0AD1E06B012807D0502080F3FC
:1035B0001188BFF34F8FBFF36F8FFEE700F0D4F990
:1035C00048B9049838B1502080F31188BFF34F8F69
:1035D000BFF36F8FFEE700264FF08058DFF8F090C2
:1035E000FFF77EFDA06BE16B884205D3022F03D06D
:1035F000049808B335B329E03A4651462046FFF710
:10360000E3FA616A59B104F1240000F071FA68B17B
:10361000C9F80080BFF34F8FBFF36F8F06E028B16A
:10362000C9F80080BFF34F8FBFF36F8FFFF778FDAE
:1036300006B00120BDE8F087FFF772FD06B000205C
:10364000BDE8F0876846FFF7E9FD0125FFF768FD53
:10365000FFF750FEFFF744FD94F94400B0F1FF3F3F
:1036600001D184F8446094F94500B0F1FF3F01D1E5
:1036700084F84560FFF754FD04A9684600F0CEF8D1
:1036800040B12046FFF71EFC00F06EFA06B00020A5
:10369000BDE8F0872046FFF7DCFB90B104F1100095
:1036A0000499FFF7C9FD2046FFF70CFC00F05CFA17
:1036B000002895D1C9F80080BFF34F8FBFF36F8FFB
:1036C0008EE72046FFF7FEFB00F04EFA88E7000089
:1036D00004ED00E02DE9F74783B004468A46002553
:1036E000002C03D0BAF1000F08D011E0502080F375
:1036F0001188BFF34F8FBFF36F8FFEE7206C38B197
:10370000502080F31188BFF34F8FBFF36F8FFEE718
:1037100000F02AF948B9059838B1502080F3118893
:10372000BFF34F8FBFF36F8FFEE700274FF0805836
:10373000DFF8E490FFF7D4FCA66BC6B151462046F3
:10374000FFF730FA701EA063206950B104F1100039
:1037500000F0CEF928B1C9F80080BFF34F8FBFF356
:103760006F8FFFF7DDFC06B00120BDE8F0870598FC
:1037700008B135B109E0FFF7D3FC06B00020BDE881
:10378000F0876846FFF74AFD0125FFF7C9FCFFF700
:10379000B1FDFFF7A5FC94F94400B0F1FF3F01D162
:1037A00084F8447094F94500B0F1FF3F01D184F8EA
:1037B0004570FFF7B5FC05A9684600F02FF868B121
:1037C0002046FFF77FFB00F0CFF92046FFF734FBE0
:1037D0000028AFD006B00020BDE8F0872046FFF7F4
:1037E0002BFB90B104F124000599FFF725FD20463D
:1037F000FFF768FB00F0B8F900289BD1C9F80080FA
:10380000BFF34F8FBFF36F8F94E72046FFF75AFB4C
:1038100000F0AAF98EE7000004ED00E070B505465F
:103820000C46002D15D0E4B1FFF75AFCDFF868C054
:10383000DCF814006B68C11A2268B2F1FF3F18D09F
:103840002E68DCF828C0664515D0834213D80124C1
:103850001DE0502080F31188BFF34F8FBFF36F8FAF
:10386000FEE7502080F31188BFF34F8FBFF36F8FB7
:10387000FEE700240BE08A4206D9501A2060284651
:10388000FFF7CCFC002402E0002020600124FFF7B9
:1038900047FC204670BD0000200000202DE9F04FBD
:1038A00085B081460F9F0E9E8A4690469B464FEA02
:1038B0008800FFF73BFB054628000AD05420FFF79D
:1038C00035FB04460CB1256304E02846FFF73EFCB7
:1038D00000E000249CB1002084F8510003905B4676
:1038E000424651460197009602944846FFF70CFA6B
:1038F0002046FFF7F3F805B00120BDE8F08F05B0D2
:103900004FF0FF30BDE8F08F70B586B00646DDF8A9
:1039100028C00C9C0B98002816D0ECB154250495B7
:103920002063022084F85100002005AD0390CDF8FB
:1039300000C0019502943046FFF7E6F92046FFF7F4
:10394000CDF8059806B070BD502080F31188BFF304
:103950004F8FBFF36F8FFEE7502080F31188BFF3C6
:103960004F8FBFF36F8FFEE70548C169002903D071
:10397000806B18B10020704701207047022070470B
:10398000200000202DE9F0470026304FB86B0028BA
:1039900008D0386A401C3862786A00B10126304687
:1039A000BDE8F0877869451C7D619DB9786800683D
:1039B00038B1502080F31188BFF34F8FBFF36F8F62
:1039C000FEE77868B9687960B860B86A401CB86288
:1039D000FFF74EFA386BDFF8788085420FD34FF04F
:1039E00001097868006838B17868C068C4686068A0
:1039F00085420ED2386302E04FF0FF3038633868FA
:103A0000C06A00EB800058F820000128C4D90126C4
:103A1000C2E7201DFFF70EFBA06A18B104F11800E1
:103A2000FFF708FBE16ABA6909FA01F01043B861CF
:103A300001EB810008EB8000211DFFF744FBE06AE9
:103A40003968C96A8842CCD30126CAE72000002021
:103A50009803002070B504460021002841D0224D73
:103A60002868844207D0502080F31188BFF34F8F1D
:103A7000BFF36F8FFEE7A06C38B1401EA064636C8B
:103A8000E26A9A422DD040B12BE0502080F3118899
:103A9000BFF34F8FBFF36F8FFEE7201DFFF7CAFA0A
:103AA0001249012258B9E06A00EB800351F8233033
:103AB0002BB9AB6902FA00F023EA0000A861606C40
:103AC000E062C0F10700A061E06AAB6982401A437E
:103AD000AA6100EB800001EB8000211DFFF7F3FAE3
:103AE0000121084670BD000020000020980300203E
:103AF00070B5C068C468002C14D004F11800FFF73A
:103B000099FA164DA86B0126A0B104F118011448CA
:103B1000FFF7D9FAE06A2968C96A88421CD90120EE
:103B20006E6270BD502080F31188BFF34F8FBFF3DA
:103B30006F8FFEE7201DFFF77DFAE06AAA6906FA9B
:103B400000F11143A961074900EB800001EB8000FF
:103B5000211DFFF7B8FADDE7002070BD200000202E
:103B60004C040020980300202DE9F0470024A046D3
:103B70002D4DA86B002807D0FFF7B2FAA86B401EA6
:103B8000A863A86B40B149E0502080F31188BFF3CF
:103B90004F8FBFF36F8FFEE7286900283ED0234F79
:103BA0003868012600B3A7F1B409F868C46804F1C5
:103BB0001800FFF73FFA201DFFF73CFAE06AAA69F8
:103BC00006FA00F11143A96100EB800009EB8000C7
:103BD000211DFFF778FAE06A2968C96A884200D394
:103BE0006E6238680028E0D10CB1FFF741F92C6A09
:103BF00044B1FFF7C7FE00B16E62641E002CF8D11D
:103C000000202862686A48B14FF0010808494FF067
:103C100080500860BFF34F8FBFF36F8FFFF780FABC
:103C20004046BDE8F0870000200000204C04002042
:103C300004ED00E00100000016000000000000009C
:103C400000000000E03C0008DD2300080000000048
:103C500000000000800000000000000000000000E4
:103C6000D43C000809230008FEFF0000000000000B
:103C7000800000000000000000000000EC3C000894
:103C800071230008FDFF000000000000800000001C
:103C900000000000000000000203040506070809F8
:103CA0000A0B0C0D0E0F101001020203040506078B
:103CB00008090A0B0C0D0E0F101001020000000085
:103CC00000000000010203040607080900000000CC
:103CD000010203044144435F4361707475726500DF
:103CE00064656661756C745461736B0044617461E2
:103CF0005F547261736D6974000000001C3D000820
:103D000000000020840000002C290008A03D0008CD
:103D100084000020041400003C290008000000007A
:103D20000000000000000000000000000000000093
:103D300010000000010000000024F400000000005A
:103D40000000000000000000000000000000000073
:103D50000000000000000000000000000000000063
:103D60000000000000000000000000000000000053
:103D70000000000000000000000000000000000043
:103D80000000000000000000000000000000000033
:103D900000000000AAAAAAAA00000000000000007B
:0400000508000131BD
:00000001FF
